{
  "contractName": "Greeter",
  "abi": [
    {
      "constant": false,
      "inputs": [
        {
          "name": "_greeting",
          "type": "string"
        }
      ],
      "name": "greeter",
      "outputs": [],
      "payable": false,
      "stateMutability": "nonpayable",
      "type": "function"
    },
    {
      "constant": true,
      "inputs": [],
      "name": "greet",
      "outputs": [
        {
          "name": "",
          "type": "string"
        }
      ],
      "payable": false,
      "stateMutability": "view",
      "type": "function"
    }
  ],
  "bytecode": "0x6060604052341561000f57600080fd5b6102e38061001e6000396000f30060606040526004361061004c576000357c0100000000000000000000000000000000000000000000000000000000900463ffffffff168063cfae321714610051578063faf27bca146100df575b600080fd5b341561005c57600080fd5b61006461013c565b6040518080602001828103825283818151815260200191508051906020019080838360005b838110156100a4578082015181840152602081019050610089565b50505050905090810190601f1680156100d15780820380516001836020036101000a031916815260200191505b509250505060405180910390f35b34156100ea57600080fd5b61013a600480803590602001908201803590602001908080601f016020809104026020016040519081016040528093929190818152602001838380828437820191505050505050919050506101e4565b005b6101446101fe565b60008054600181600116156101000203166002900480601f0160208091040260200160405190810160405280929190818152602001828054600181600116156101000203166002900480156101da5780601f106101af576101008083540402835291602001916101da565b820191906000526020600020905b8154815290600101906020018083116101bd57829003601f168201915b5050505050905090565b80600090805190602001906101fa929190610212565b5050565b602060405190810160405280600081525090565b828054600181600116156101000203166002900490600052602060002090601f016020900481019282601f1061025357805160ff1916838001178555610281565b82800160010185558215610281579182015b82811115610280578251825591602001919060010190610265565b5b50905061028e9190610292565b5090565b6102b491905b808211156102b0576000816000905550600101610298565b5090565b905600a165627a7a723058207499900dc3c51a0d5c81a8a6d26baae365b770c24a68b094befb97bdda9e20740029",
  "source": "pragma solidity ^0.4.13;\ncontract Greeter {\n        string greeting;\n\n        function greeter(string _greeting) public {\n                greeting = _greeting;\n        }\n\n        function greet() constant public returns (string) {\n                return greeting;\n        }\n}\n",
  "sourcePath": "/Users/shashankshekhar/PGP-BDA/GIT/BlockchainEthereum/greeterApp/greeter/contracts/Greeter.sol",
  "compiler": {
    "name": "solc",
    "version": "0.4.19+commit.c4cbbb05.Emscripten.clang"
  },
  "schemaVersion": "1.0.1",
  "updatedAt": "2018-02-25T19:06:05.168Z"
}